{
  "address": "0xC88910B65397A79f258F602B1821E67A25C2330F",
  "abi": [
    {
      "inputs": [
        {
          "internalType": "address",
          "name": "_supportedAsset1",
          "type": "address"
        },
        {
          "internalType": "address",
          "name": "_supportedAsset2",
          "type": "address"
        }
      ],
      "stateMutability": "nonpayable",
      "type": "constructor"
    },
    {
      "inputs": [
        {
          "internalType": "address",
          "name": "",
          "type": "address"
        }
      ],
      "name": "AssetIsSupported",
      "type": "error"
    },
    {
      "inputs": [
        {
          "internalType": "address",
          "name": "",
          "type": "address"
        }
      ],
      "name": "ContractAddressNotAllowed",
      "type": "error"
    },
    {
      "inputs": [
        {
          "internalType": "uint256",
          "name": "balThis",
          "type": "uint256"
        },
        {
          "internalType": "uint256",
          "name": "balToRec",
          "type": "uint256"
        }
      ],
      "name": "InsufficientLiquidyInContract",
      "type": "error"
    },
    {
      "inputs": [
        {
          "internalType": "address",
          "name": "",
          "type": "address"
        }
      ],
      "name": "UnSupportedAsset",
      "type": "error"
    },
    {
      "anonymous": false,
      "inputs": [
        {
          "indexed": true,
          "internalType": "address",
          "name": "previousOwner",
          "type": "address"
        },
        {
          "indexed": true,
          "internalType": "address",
          "name": "newOwner",
          "type": "address"
        }
      ],
      "name": "OwnershipTransferred",
      "type": "event"
    },
    {
      "inputs": [],
      "name": "addLiquidity",
      "outputs": [],
      "stateMutability": "payable",
      "type": "function"
    },
    {
      "inputs": [],
      "name": "feeTo",
      "outputs": [
        {
          "internalType": "address",
          "name": "",
          "type": "address"
        }
      ],
      "stateMutability": "view",
      "type": "function"
    },
    {
      "inputs": [],
      "name": "getData",
      "outputs": [
        {
          "internalType": "uint256",
          "name": "_totalLiquidity",
          "type": "uint256"
        },
        {
          "internalType": "uint256",
          "name": "_swapfee",
          "type": "uint256"
        },
        {
          "internalType": "uint256",
          "name": "_totalFeeReceived",
          "type": "uint256"
        },
        {
          "internalType": "uint256",
          "name": "_totalProvider",
          "type": "uint256"
        },
        {
          "components": [
            {
              "internalType": "uint256",
              "name": "amount",
              "type": "uint256"
            },
            {
              "internalType": "uint256",
              "name": "timeProvided",
              "type": "uint256"
            },
            {
              "internalType": "uint256",
              "name": "position",
              "type": "uint256"
            },
            {
              "internalType": "bool",
              "name": "isExist",
              "type": "bool"
            }
          ],
          "internalType": "struct SwapLab.Provider",
          "name": "_provider",
          "type": "tuple"
        }
      ],
      "stateMutability": "view",
      "type": "function"
    },
    {
      "inputs": [
        {
          "internalType": "address",
          "name": "",
          "type": "address"
        }
      ],
      "name": "liqProviders",
      "outputs": [
        {
          "internalType": "uint256",
          "name": "amount",
          "type": "uint256"
        },
        {
          "internalType": "uint256",
          "name": "timeProvided",
          "type": "uint256"
        },
        {
          "internalType": "uint256",
          "name": "position",
          "type": "uint256"
        },
        {
          "internalType": "bool",
          "name": "isExist",
          "type": "bool"
        }
      ],
      "stateMutability": "view",
      "type": "function"
    },
    {
      "inputs": [],
      "name": "owner",
      "outputs": [
        {
          "internalType": "address",
          "name": "",
          "type": "address"
        }
      ],
      "stateMutability": "view",
      "type": "function"
    },
    {
      "inputs": [
        {
          "internalType": "address",
          "name": "",
          "type": "address"
        }
      ],
      "name": "pairs",
      "outputs": [
        {
          "internalType": "uint256",
          "name": "rateInAssetBOrA",
          "type": "uint256"
        },
        {
          "internalType": "address",
          "name": "pair",
          "type": "address"
        },
        {
          "internalType": "address",
          "name": "owner",
          "type": "address"
        }
      ],
      "stateMutability": "view",
      "type": "function"
    },
    {
      "inputs": [
        {
          "internalType": "uint256",
          "name": "",
          "type": "uint256"
        }
      ],
      "name": "providersAddress",
      "outputs": [
        {
          "internalType": "address",
          "name": "",
          "type": "address"
        }
      ],
      "stateMutability": "view",
      "type": "function"
    },
    {
      "inputs": [],
      "name": "removeLiquidity",
      "outputs": [],
      "stateMutability": "nonpayable",
      "type": "function"
    },
    {
      "inputs": [],
      "name": "renounceOwnership",
      "outputs": [],
      "stateMutability": "nonpayable",
      "type": "function"
    },
    {
      "inputs": [
        {
          "internalType": "address[]",
          "name": "assets",
          "type": "address[]"
        },
        {
          "internalType": "uint256[]",
          "name": "rateInAssetBOrA",
          "type": "uint256[]"
        },
        {
          "internalType": "address",
          "name": "tokenOwner",
          "type": "address"
        }
      ],
      "name": "setPair",
      "outputs": [],
      "stateMutability": "nonpayable",
      "type": "function"
    },
    {
      "inputs": [
        {
          "internalType": "address[]",
          "name": "_supportedAssets",
          "type": "address[]"
        },
        {
          "internalType": "uint256[]",
          "name": "rates",
          "type": "uint256[]"
        }
      ],
      "name": "setSupportedAsset",
      "outputs": [],
      "stateMutability": "nonpayable",
      "type": "function"
    },
    {
      "inputs": [],
      "name": "splitFee",
      "outputs": [],
      "stateMutability": "nonpayable",
      "type": "function"
    },
    {
      "inputs": [
        {
          "internalType": "address",
          "name": "",
          "type": "address"
        }
      ],
      "name": "supportedAssets",
      "outputs": [
        {
          "internalType": "bool",
          "name": "isSupported",
          "type": "bool"
        },
        {
          "internalType": "uint256",
          "name": "rate",
          "type": "uint256"
        }
      ],
      "stateMutability": "view",
      "type": "function"
    },
    {
      "inputs": [
        {
          "internalType": "address",
          "name": "asset",
          "type": "address"
        }
      ],
      "name": "swapERC20ForCelo",
      "outputs": [
        {
          "internalType": "bool",
          "name": "",
          "type": "bool"
        }
      ],
      "stateMutability": "payable",
      "type": "function"
    },
    {
      "inputs": [
        {
          "internalType": "contract IERC20",
          "name": "assetA",
          "type": "address"
        }
      ],
      "name": "swapERC20ToERC20",
      "outputs": [
        {
          "internalType": "bool",
          "name": "",
          "type": "bool"
        }
      ],
      "stateMutability": "payable",
      "type": "function"
    },
    {
      "inputs": [],
      "name": "swapfee",
      "outputs": [
        {
          "internalType": "uint256",
          "name": "",
          "type": "uint256"
        }
      ],
      "stateMutability": "view",
      "type": "function"
    },
    {
      "inputs": [],
      "name": "totalFeeReceived",
      "outputs": [
        {
          "internalType": "uint256",
          "name": "",
          "type": "uint256"
        }
      ],
      "stateMutability": "view",
      "type": "function"
    },
    {
      "inputs": [],
      "name": "totalLiquidity",
      "outputs": [
        {
          "internalType": "uint256",
          "name": "",
          "type": "uint256"
        }
      ],
      "stateMutability": "view",
      "type": "function"
    },
    {
      "inputs": [],
      "name": "totalProvider",
      "outputs": [
        {
          "internalType": "uint256",
          "name": "",
          "type": "uint256"
        }
      ],
      "stateMutability": "view",
      "type": "function"
    },
    {
      "inputs": [
        {
          "internalType": "address",
          "name": "newOwner",
          "type": "address"
        }
      ],
      "name": "transferOwnership",
      "outputs": [],
      "stateMutability": "nonpayable",
      "type": "function"
    }
  ],
  "transactionHash": "0xc79d6f47eb46f18e49138243db62573ec9ade27654c1c1c7178d119ef6a6f4b8",
  "args": [
    "0x6d4959eAeF033EF265578A96900Eaf55811cC088",
    "0x4A833cD9478BC33a395B3830723bda8bf1359Cf4"
  ],
  "numDeployments": 9,
  "solcInputHash": "df4f23ef713b6890bc623d4238f4fa7f",
  "bytecode": "0x60806040523480156200001157600080fd5b5060405162002a4438038062002a4483398101604081905262000034916200080a565b6200005a6200004b64010000000062000275810204565b64010000000062000279810204565b6001805560408051600280825260608201835260009260208301908036833750506040805160028082526060820183529394506000939092509060208301908036833750506040805160028082526060820183529394506000939092509060208301908036833701905050905067016345785d8a000081600081518110620000e657620000e662000842565b60200260200101818152505067016345785d8a00008160018151811062000111576200011162000842565b602002602001018181525050848360008151811062000134576200013462000842565b6020026020010190600160a060020a03169081600160a060020a03168152505083836001815181106200016b576200016b62000842565b6020026020010190600160a060020a03169081600160a060020a0316815250506802b5e3af16b188000082600081518110620001ab57620001ab62000842565b6020908102919091010152655af3107a4000600555620001d364010000000062000275810204565b60068054600160a060020a0392909216600160a060020a0319928316179055600780546001810182556000919091527fa66cc928b5edb82af9bd49922954155ab7b0942694bea4ce44661d9a8736c68801805490911633179055620002428383640100000000620002c9810204565b6200026a83826200025b64010000000062000275810204565b640100000000620003e9810204565b5050505050620008b2565b3390565b60008054600160a060020a03838116600160a060020a0319831681178455604051919092169283917f8be0079c531659141344cd1fd0a4f28419497f9722a3daafe3b4186f6b6457e09190a35050565b80518251146200033a576040517f08c379a000000000000000000000000000000000000000000000000000000000815260206004820152600f60248201527f4c656e677468206d69736d61746368000000000000000000000000000000000060448201526064015b60405180910390fd5b60005b8251811015620003e457604051806040016040528060011515815260200183838151811062000370576200037062000842565b60200260200101518152506008600085848151811062000394576200039462000842565b602090810291909101810151600160a060020a03168252818101929092526040016000208251815460ff191690151517815591015160019091015580620003db8162000871565b9150506200033d565b505050565b82516002148015620003fc575082518251145b62000464576040517f08c379a000000000000000000000000000000000000000000000000000000000815260206004820152600c60248201527f496e76616c696420646174610000000000000000000000000000000000000000604482015260640162000331565b620004a0836000815181106200047e576200047e62000842565b6020026020010151620007de64010000000002620015aa176401000000009004565b8015620004c25750620004c2836001815181106200047e576200047e62000842565b6200052a576040517f08c379a000000000000000000000000000000000000000000000000000000000815260206004820152601660248201527f41646472657373206e6f74206120636f6e747261637400000000000000000000604482015260640162000331565b6000600160a060020a0316836000815181106200054b576200054b62000842565b6020026020010151600160a060020a0316141580156200059b57506000600160a060020a03168360018151811062000587576200058762000842565b6020026020010151600160a060020a031614155b62000603576040517f08c379a000000000000000000000000000000000000000000000000000000000815260206004820152601460248201527f5a65726f20616464726573732073706f74746564000000000000000000000000604482015260640162000331565b620006188383640100000000620002c9810204565b60405180606001604052808360008151811062000639576200063962000842565b60200260200101518152602001846001815181106200065c576200065c62000842565b6020026020010151600160a060020a0316815260200182600160a060020a0316815250600960008560008151811062000699576200069962000842565b602090810291909101810151600160a060020a03908116835282820193909352604091820160009081208551815591850151600183018054600160a060020a0319908116928716929092179055948301516002909201805490951691909316179092558151606081019092528351829185916200071a576200071a62000842565b60200260200101518152602001846000815181106200073d576200073d62000842565b6020026020010151600160a060020a0316815260200182600160a060020a031681525060096000856001815181106200077a576200077a62000842565b602090810291909101810151600160a060020a0390811683528282019390935260409182016000208451815590840151600182018054600160a060020a03199081169286169290921790559390910151600290910180549093169116179055505050565b600160a060020a03163b151590565b8051600160a060020a03811681146200080557600080fd5b919050565b600080604083850312156200081e57600080fd5b6200082983620007ed565b91506200083960208401620007ed565b90509250929050565b7f4e487b7100000000000000000000000000000000000000000000000000000000600052603260045260246000fd5b600060018201620008ab577f4e487b7100000000000000000000000000000000000000000000000000000000600052601160045260246000fd5b5060010190565b61218280620008c26000396000f3fe6080604052600436106101235760003560e060020a900480638da5cb5b116100a4578063e8078d9411610068578063e8078d9414610351578063e903576114610359578063ee3eb74e14610379578063f2fde38b146103e0578063fe33b3021461040057600080fd5b80638da5cb5b1461028f578063bd81579e146102ad578063be94e09b146102fe578063c42cc4741461031e578063e61d9f081461033157600080fd5b8063445400bb116100eb578063445400bb1461021557806349805555146102385780635f5513871461024f57806367b9a28614610265578063715018a61461027a57600080fd5b8063017e7e58146101285780630784e3501461016557806315770f9214610189578063168341011461019f5780633bc5de30146101b5575b600080fd5b34801561013457600080fd5b5060065461014890600160a060020a031681565b604051600160a060020a0390911681526020015b60405180910390f35b34801561017157600080fd5b5061017b60055481565b60405190815260200161015c565b34801561019557600080fd5b5061017b60025481565b3480156101ab57600080fd5b5061017b60045481565b3480156101c157600080fd5b506101ca61046d565b6040805195865260208087019590955285810193909352606080860192909252805160808601529283015160a08501529082015160c08401520151151560e08201526101000161015c565b610228610223366004611cc8565b610502565b604051901515815260200161015c565b34801561024457600080fd5b5061024d610979565b005b34801561025b57600080fd5b5061017b60035481565b34801561027157600080fd5b5061024d610ad8565b34801561028657600080fd5b5061024d610c8d565b34801561029b57600080fd5b50600054600160a060020a0316610148565b3480156102b957600080fd5b506102e76102c8366004611cc8565b6008602052600090815260409020805460019091015460ff9091169082565b60408051921515835260208301919091520161015c565b34801561030a57600080fd5b5061024d610319366004611e23565b610c9f565b61022861032c366004611cc8565b610cb7565b34801561033d57600080fd5b5061014861034c366004611e9b565b611274565b61024d61129e565b34801561036557600080fd5b5061024d610374366004611eb4565b611501565b34801561038557600080fd5b506103be610394366004611cc8565b600a6020526000908152604090208054600182015460028301546003909301549192909160ff1684565b604080519485526020850193909352918301521515606082015260800161015c565b3480156103ec57600080fd5b5061024d6103fb366004611cc8565b611517565b34801561040c57600080fd5b5061044861041b366004611cc8565b6009602052600090815260409020805460018201546002909201549091600160a060020a03908116911683565b60408051938452600160a060020a03928316602085015291169082015260600161015c565b6000806000806104a060405180608001604052806000815260200160008152602001600081526020016000151581525090565b50506002805460055460038054600454336000908152600a60209081526040918290208251608081018452815481526001820154928101929092529788015491810191909152959092015460ff16151560608601529297919650919450909250565b6000333b1561052e5760405160e160020a637a665e8f0281523360048201526024015b60405180910390fd5b6105366115b9565b600160a060020a03821660009081526008602090815260408083208151808301909252805460ff161515808352600190910154928201929092528492916105b4576040517f3c4df43a000000000000000000000000000000000000000000000000000000008152600160a060020a0384166004820152602401610525565b811561065157600160a060020a03808416600090815260096020908152604091829020825160608101845281548152600182015485169281018390526002909101549093169183019190915261064f5760405160e560020a62461bcd02815260206004820152600d60248201527f4e6f207061697220666f756e64000000000000000000000000000000000000006044820152606401610525565b505b6040517fdd62ed3e000000000000000000000000000000000000000000000000000000008152336004820152306024820152670de0b6b3a764000090600090600160a060020a0388169063dd62ed3e90604401602060405180830381865afa1580156106c1573d6000803e3d6000fd5b505050506040513d601f19601f820116820180604052508101906106e59190611f18565b90508181118015610708575061070660646107008385611615565b9061162a565b155b6107575760405160e560020a62461bcd02815260206004820152601560248201527f496e76616c696420746f6b656e207265717565737400000000000000000000006044820152606401610525565b600554348111156107d35760405160e560020a62461bcd02815260206004820152602260248201527f496e73756666696369656e742076616c756520746f207061792073776170206660448201527f65650000000000000000000000000000000000000000000000000000000000006064820152608401610525565b60006107ed633b9aca006107e78587611615565b90611636565b9050600254811115610839576002546040517f02f90ce5000000000000000000000000000000000000000000000000000000008152600481019190915260248101829052604401610525565b6003546108469083611642565b600355600254610856908261164e565b600255600160a060020a0389166323b872dd3361087b600054600160a060020a031690565b60405160e060020a63ffffffff8516028152600160a060020a03928316600482015291166024820152604481018690526064016020604051808303816000875af11580156108cd573d6000803e3d6000fd5b505050506040513d601f19601f820116820180604052508101906108f19190611f31565b6109405760405160e560020a62461bcd02815260206004820152600660248201527f4661696c656400000000000000000000000000000000000000000000000000006044820152606401610525565b60065461095690600160a060020a03168361165a565b610960338261165a565b600197505050505050505061097460018055565b919050565b333b1561099e5760405160e160020a637a665e8f028152336004820152602401610525565b336000908152600a60205260409020546109fd5760405160e560020a62461bcd02815260206004820152600e60248201527f4e6f7420612070726f76696465720000000000000000000000000000000000006044820152606401610525565b610a056115b9565b60035480610a585760405160e560020a62461bcd02815260206004820181905260248201527f4665652063616e6e6f742062652073706c697420617420746869732074696d656044820152606401610525565b6000600381905560075490610a6d8383611615565b905060005b82811015610ac957600060078281548110610a8f57610a8f611f53565b600091825260209091200154600160a060020a031690508015610ab657610ab6818461165a565b5080610ac181611f85565b915050610a72565b50505050610ad660018055565b565b333b15610afd5760405160e160020a637a665e8f028152336004820152602401610525565b336000908152600a6020526040902054610b5c5760405160e560020a62461bcd02815260206004820152600e60248201527f4e6f7420612070726f76696465720000000000000000000000000000000000006044820152606401610525565b610b646115b9565b336000818152600a60208181526040808420815160808082018452825482526001830180548387015260028401805484870190815260038601805460ff8116151560608089019182528a519788018b528d8852878c018e815294519a88019a8b52905115159087019081529c8c5299909852925190945590519055915190559351151560ff199092169190911790556004805491610c0183611f9e565b90915550508051600254610c149161164e565b6002558051604082015160078054600092908110610c3457610c34611f53565b6000918252602090912001805473ffffffffffffffffffffffffffffffffffffffff1916600160a060020a0392909216919091179055815130311015610c78575030315b610c82338261165a565b5050610ad660018055565b610c9561177a565b610ad660006117d7565b610ca761177a565b610cb2838383611834565b505050565b6000610cc16115b9565b600160a060020a0382166000908152600860209081526040918290208251808401909352805460ff1615158084526001918201549284019290925284929091610d41576040517f3c4df43a000000000000000000000000000000000000000000000000000000008152600160a060020a0384166004820152602401610525565b8115610dde57600160a060020a038084166000908152600960209081526040918290208251606081018452815481526001820154851692810183905260029091015490931691830191909152610ddc5760405160e560020a62461bcd02815260206004820152600d60248201527f4e6f207061697220666f756e64000000000000000000000000000000000000006044820152606401610525565b505b600554348110610e335760405160e560020a62461bcd02815260206004820152601260248201527f496e73756666696369656e742076616c756500000000000000000000000000006044820152606401610525565b6000600160a060020a03871663dd62ed3e3360405160e060020a63ffffffff8416028152600160a060020a039091166004820152306024820152604401602060405180830381865afa158015610e8d573d6000803e3d6000fd5b505050506040513d601f19601f82011682018060405250810190610eb19190611f18565b9050600087600160a060020a031663313ce5676040518163ffffffff1660e060020a028152600401602060405180830381865afa158015610ef6573d6000803e3d6000fd5b505050506040513d601f19601f82011682018060405250810190610f1a9190611fb5565b610f2590600a6120bf565b600160a060020a03808a166000908152600960209081526040918290208251606081018452815481526001820154851692810192909252600201549092169082015290915082610fba5760405160e560020a62461bcd02815260206004820152600a60248201527f4e6f206465706f736974000000000000000000000000000000000000000000006044820152606401610525565b6000610fdd83610fd784600001518761163690919063ffffffff16565b90611615565b602083015160408085015190517fdd62ed3e000000000000000000000000000000000000000000000000000000008152600160a060020a039182166004820152306024820152929350839291169063dd62ed3e90604401602060405180830381865afa158015611051573d6000803e3d6000fd5b505050506040513d601f19601f820116820180604052508101906110759190611f18565b10156110c65760405160e560020a62461bcd02815260206004820152601460248201527f4e6f7420656e6f75676820616c6c6f77616e63650000000000000000000000006044820152606401610525565b6006546110dc90600160a060020a03168661165a565b60008260200151600160a060020a03166323b872dd84604001516110fd3390565b60405160e060020a63ffffffff8516028152600160a060020a03928316600482015291166024820152604481018590526064016020604051808303816000875af115801561114f573d6000803e3d6000fd5b505050506040513d601f19601f820116820180604052508101906111739190611f31565b90506000600160a060020a038c166323b872dd33604080880151905160e060020a63ffffffff8516028152600160a060020a03928316600482015291166024820152604481018990526064016020604051808303816000875af11580156111de573d6000803e3d6000fd5b505050506040513d601f19601f820116820180604052508101906112029190611f31565b905081801561120e5750805b61125d5760405160e560020a62461bcd02815260206004820152600660248201527f4661696c656400000000000000000000000000000000000000000000000000006044820152606401610525565b60019a505050505050505050505061097460018055565b6007818154811061128457600080fd5b600091825260209091200154600160a060020a0316905081565b333b156112c35760405160e160020a637a665e8f028152336004820152602401610525565b600034116113165760405160e560020a62461bcd02815260206004820152601260248201527f496e73756666696369656e742076616c756500000000000000000000000000006044820152606401610525565b336000908152600a6020908152604080832081516080810183528154815260018201549381019390935260028101549183018290526003015460ff161515606083018190529192909190036113d257506007546004805490600061137983611f85565b9091555050600780546001810182556000919091527fa66cc928b5edb82af9bd49922954155ab7b0942694bea4ce44661d9a8736c68801805473ffffffffffffffffffffffffffffffffffffffff19163317905561144d565b6000600160a060020a0316600782815481106113f0576113f0611f53565b600091825260209091200154600160a060020a03160361144d57336007828154811061141e5761141e611f53565b9060005260206000200160006101000a815481600160a060020a030219169083600160a060020a031602179055505b6040805160808101909152825181906114669034611642565b8152602001600084602001511161147d574261149b565b602084015161149b906114956002610fd7428461164e565b90611642565b8152602080820184905260016040928301819052336000908152600a8352839020845181559184015190820155908201516002808301919091556060909201516003909101805460ff1916911515919091179055546114fa9034611642565b6002555050565b61150961177a565b6115138282611bbf565b5050565b61151f61177a565b600160a060020a03811661159e5760405160e560020a62461bcd02815260206004820152602660248201527f4f776e61626c653a206e6577206f776e657220697320746865207a65726f206160448201527f64647265737300000000000000000000000000000000000000000000000000006064820152608401610525565b6115a7816117d7565b50565b600160a060020a03163b151590565b60026001540361160e5760405160e560020a62461bcd02815260206004820152601f60248201527f5265656e7472616e637947756172643a207265656e7472616e742063616c6c006044820152606401610525565b6002600155565b600061162182846120e7565b90505b92915050565b600061162182846120fb565b6000611621828461210f565b60006116218284612126565b60006116218284612139565b30318111156116ae5760405160e560020a62461bcd02815260206004820152601d60248201527f416464726573733a20696e73756666696369656e742062616c616e63650000006044820152606401610525565b600082600160a060020a03168260405160006040518083038185875af1925050503d80600081146116fb576040519150601f19603f3d011682016040523d82523d6000602084013e611700565b606091505b5050905080610cb25760405160e560020a62461bcd02815260206004820152603a60248201527f416464726573733a20756e61626c6520746f2073656e642076616c75652c207260448201527f6563697069656e74206d617920686176652072657665727465640000000000006064820152608401610525565b600054600160a060020a03163314610ad65760405160e560020a62461bcd02815260206004820181905260248201527f4f776e61626c653a2063616c6c6572206973206e6f7420746865206f776e65726044820152606401610525565b60008054600160a060020a0383811673ffffffffffffffffffffffffffffffffffffffff19831681178455604051919092169283917f8be0079c531659141344cd1fd0a4f28419497f9722a3daafe3b4186f6b6457e09190a35050565b82516002148015611846575082518251145b6118955760405160e560020a62461bcd02815260206004820152600c60248201527f496e76616c6964206461746100000000000000000000000000000000000000006044820152606401610525565b6118c2836000815181106118ab576118ab611f53565b6020026020010151600160a060020a03163b151590565b80156118df57506118df836001815181106118ab576118ab611f53565b61192e5760405160e560020a62461bcd02815260206004820152601660248201527f41646472657373206e6f74206120636f6e7472616374000000000000000000006044820152606401610525565b6000600160a060020a03168360008151811061194c5761194c611f53565b6020026020010151600160a060020a03161415801561199857506000600160a060020a03168360018151811061198457611984611f53565b6020026020010151600160a060020a031614155b6119e75760405160e560020a62461bcd02815260206004820152601460248201527f5a65726f20616464726573732073706f747465640000000000000000000000006044820152606401610525565b6119f18383611bbf565b604051806060016040528083600081518110611a0f57611a0f611f53565b6020026020010151815260200184600181518110611a2f57611a2f611f53565b6020026020010151600160a060020a0316815260200182600160a060020a03168152506009600085600081518110611a6957611a69611f53565b602090810291909101810151600160a060020a0390811683528282019390935260409182016000908120855181559185015160018301805473ffffffffffffffffffffffffffffffffffffffff1990811692871692909217905594830151600290920180549095169190931617909255815160608101909252835182918591611af457611af4611f53565b6020026020010151815260200184600081518110611b1457611b14611f53565b6020026020010151600160a060020a0316815260200182600160a060020a03168152506009600085600181518110611b4e57611b4e611f53565b602090810291909101810151600160a060020a039081168352828201939093526040918201600020845181559084015160018201805473ffffffffffffffffffffffffffffffffffffffff199081169286169290921790559390910151600290910180549093169116179055505050565b8051825114611c135760405160e560020a62461bcd02815260206004820152600f60248201527f4c656e677468206d69736d6174636800000000000000000000000000000000006044820152606401610525565b60005b8251811015610cb2576040518060400160405280600115158152602001838381518110611c4557611c45611f53565b602002602001015181525060086000858481518110611c6657611c66611f53565b602090810291909101810151600160a060020a03168252818101929092526040016000208251815460ff191690151517815591015160019091015580611cab81611f85565b915050611c16565b600160a060020a03811681146115a757600080fd5b600060208284031215611cda57600080fd5b8135611ce581611cb3565b9392505050565b60e060020a634e487b7102600052604160045260246000fd5b604051601f8201601f1916810167ffffffffffffffff81118282101715611d2e57611d2e611cec565b604052919050565b600067ffffffffffffffff821115611d5057611d50611cec565b5060209081020190565b600082601f830112611d6b57600080fd5b81356020611d80611d7b83611d36565b611d05565b82815291810284018101918181019086841115611d9c57600080fd5b8286015b84811015611dc0578035611db381611cb3565b8352918301918301611da0565b509695505050505050565b600082601f830112611ddc57600080fd5b81356020611dec611d7b83611d36565b82815291810284018101918181019086841115611e0857600080fd5b8286015b84811015611dc05780358352918301918301611e0c565b600080600060608486031215611e3857600080fd5b833567ffffffffffffffff80821115611e5057600080fd5b611e5c87838801611d5a565b94506020860135915080821115611e7257600080fd5b50611e7f86828701611dcb565b9250506040840135611e9081611cb3565b809150509250925092565b600060208284031215611ead57600080fd5b5035919050565b60008060408385031215611ec757600080fd5b823567ffffffffffffffff80821115611edf57600080fd5b611eeb86838701611d5a565b93506020850135915080821115611f0157600080fd5b50611f0e85828601611dcb565b9150509250929050565b600060208284031215611f2a57600080fd5b5051919050565b600060208284031215611f4357600080fd5b81518015158114611ce557600080fd5b60e060020a634e487b7102600052603260045260246000fd5b60e060020a634e487b7102600052601160045260246000fd5b600060018201611f9757611f97611f6c565b5060010190565b600081611fad57611fad611f6c565b506000190190565b600060208284031215611fc757600080fd5b815160ff81168114611ce557600080fd5b600181815b80851115612015578160001904821115611ff957611ff9611f6c565b8085161561200657918102915b60029094049390800290611fdd565b509250929050565b60008261202c57506001611624565b8161203957506000611624565b816001811461204f576002811461205957612076565b6001915050611624565b60ff84111561206a5761206a611f6c565b8360020a915050611624565b5060208310610133831016604e8410600b8410161715612099575081810a611624565b6120a38383611fd8565b80600019048211156120b7576120b7611f6c565b029392505050565b600061162160ff84168361201d565b60e060020a634e487b7102600052601260045260246000fd5b6000826120f6576120f66120ce565b500490565b60008261210a5761210a6120ce565b500690565b808202811582820484141761162457611624611f6c565b8082018082111561162457611624611f6c565b8181038181111561162457611624611f6c56fea2646970667358221220bf7f84398c88884f19e6946ff1111f7f2756900d4ebbe11b803dfdf7ccd7349d64736f6c63430008110033",
  "devdoc": {
    "kind": "dev",
    "methods": {
      "addLiquidity()": {
        "details": "We try to be fair with those that have previous liquidity in the pool by backdating the time liquidity was provided."
      },
      "owner()": {
        "details": "Returns the address of the current owner."
      },
      "removeLiquidity()": {
        "details": " If provider has no liquidity balance left in the pool, their provided time is reset."
      },
      "renounceOwnership()": {
        "details": "Leaves the contract without owner. It will not be possible to call `onlyOwner` functions anymore. Can only be called by the current owner. NOTE: Renouncing ownership will leave the contract without an owner, thereby removing any functionality that is only available to the owner."
      },
      "splitFee()": {
        "details": " Anyone can call this function to split fee among the providers."
      },
      "transferOwnership(address)": {
        "details": "Transfers ownership of the contract to a new account (`newOwner`). Can only be called by the current owner."
      }
    },
    "title": "Swap ERC20 for $CELO & ERC20 for ERC20 Anyone can be become a Celo or cUSD provider",
    "version": 1
  },
  "userdoc": {
    "kind": "user",
    "methods": {},
    "version": 1
  },
  "storageLayout": {
    "storage": [
      {
        "astId": 7,
        "contract": "contracts/SwapLab.sol:SwapLab",
        "label": "_owner",
        "offset": 0,
        "slot": "0",
        "type": "t_address"
      },
      {
        "astId": 123,
        "contract": "contracts/SwapLab.sol:SwapLab",
        "label": "_status",
        "offset": 0,
        "slot": "1",
        "type": "t_uint256"
      },
      {
        "astId": 975,
        "contract": "contracts/SwapLab.sol:SwapLab",
        "label": "totalLiquidity",
        "offset": 0,
        "slot": "2",
        "type": "t_uint256"
      },
      {
        "astId": 977,
        "contract": "contracts/SwapLab.sol:SwapLab",
        "label": "totalFeeReceived",
        "offset": 0,
        "slot": "3",
        "type": "t_uint256"
      },
      {
        "astId": 979,
        "contract": "contracts/SwapLab.sol:SwapLab",
        "label": "totalProvider",
        "offset": 0,
        "slot": "4",
        "type": "t_uint256"
      },
      {
        "astId": 981,
        "contract": "contracts/SwapLab.sol:SwapLab",
        "label": "swapfee",
        "offset": 0,
        "slot": "5",
        "type": "t_uint256"
      },
      {
        "astId": 983,
        "contract": "contracts/SwapLab.sol:SwapLab",
        "label": "feeTo",
        "offset": 0,
        "slot": "6",
        "type": "t_address"
      },
      {
        "astId": 1000,
        "contract": "contracts/SwapLab.sol:SwapLab",
        "label": "providersAddress",
        "offset": 0,
        "slot": "7",
        "type": "t_array(t_address)dyn_storage"
      },
      {
        "astId": 1005,
        "contract": "contracts/SwapLab.sol:SwapLab",
        "label": "supportedAssets",
        "offset": 0,
        "slot": "8",
        "type": "t_mapping(t_address,t_struct(SupportedAsset)988_storage)"
      },
      {
        "astId": 1010,
        "contract": "contracts/SwapLab.sol:SwapLab",
        "label": "pairs",
        "offset": 0,
        "slot": "9",
        "type": "t_mapping(t_address,t_struct(Pair)2007_storage)"
      },
      {
        "astId": 1015,
        "contract": "contracts/SwapLab.sol:SwapLab",
        "label": "liqProviders",
        "offset": 0,
        "slot": "10",
        "type": "t_mapping(t_address,t_struct(Provider)997_storage)"
      }
    ],
    "types": {
      "t_address": {
        "encoding": "inplace",
        "label": "address",
        "numberOfBytes": "20"
      },
      "t_array(t_address)dyn_storage": {
        "base": "t_address",
        "encoding": "dynamic_array",
        "label": "address[]",
        "numberOfBytes": "32"
      },
      "t_bool": {
        "encoding": "inplace",
        "label": "bool",
        "numberOfBytes": "1"
      },
      "t_mapping(t_address,t_struct(Pair)2007_storage)": {
        "encoding": "mapping",
        "key": "t_address",
        "label": "mapping(address => struct ISwapLab.Pair)",
        "numberOfBytes": "32",
        "value": "t_struct(Pair)2007_storage"
      },
      "t_mapping(t_address,t_struct(Provider)997_storage)": {
        "encoding": "mapping",
        "key": "t_address",
        "label": "mapping(address => struct SwapLab.Provider)",
        "numberOfBytes": "32",
        "value": "t_struct(Provider)997_storage"
      },
      "t_mapping(t_address,t_struct(SupportedAsset)988_storage)": {
        "encoding": "mapping",
        "key": "t_address",
        "label": "mapping(address => struct SwapLab.SupportedAsset)",
        "numberOfBytes": "32",
        "value": "t_struct(SupportedAsset)988_storage"
      },
      "t_struct(Pair)2007_storage": {
        "encoding": "inplace",
        "label": "struct ISwapLab.Pair",
        "members": [
          {
            "astId": 2002,
            "contract": "contracts/SwapLab.sol:SwapLab",
            "label": "rateInAssetBOrA",
            "offset": 0,
            "slot": "0",
            "type": "t_uint256"
          },
          {
            "astId": 2004,
            "contract": "contracts/SwapLab.sol:SwapLab",
            "label": "pair",
            "offset": 0,
            "slot": "1",
            "type": "t_address"
          },
          {
            "astId": 2006,
            "contract": "contracts/SwapLab.sol:SwapLab",
            "label": "owner",
            "offset": 0,
            "slot": "2",
            "type": "t_address"
          }
        ],
        "numberOfBytes": "96"
      },
      "t_struct(Provider)997_storage": {
        "encoding": "inplace",
        "label": "struct SwapLab.Provider",
        "members": [
          {
            "astId": 990,
            "contract": "contracts/SwapLab.sol:SwapLab",
            "label": "amount",
            "offset": 0,
            "slot": "0",
            "type": "t_uint256"
          },
          {
            "astId": 992,
            "contract": "contracts/SwapLab.sol:SwapLab",
            "label": "timeProvided",
            "offset": 0,
            "slot": "1",
            "type": "t_uint256"
          },
          {
            "astId": 994,
            "contract": "contracts/SwapLab.sol:SwapLab",
            "label": "position",
            "offset": 0,
            "slot": "2",
            "type": "t_uint256"
          },
          {
            "astId": 996,
            "contract": "contracts/SwapLab.sol:SwapLab",
            "label": "isExist",
            "offset": 0,
            "slot": "3",
            "type": "t_bool"
          }
        ],
        "numberOfBytes": "128"
      },
      "t_struct(SupportedAsset)988_storage": {
        "encoding": "inplace",
        "label": "struct SwapLab.SupportedAsset",
        "members": [
          {
            "astId": 985,
            "contract": "contracts/SwapLab.sol:SwapLab",
            "label": "isSupported",
            "offset": 0,
            "slot": "0",
            "type": "t_bool"
          },
          {
            "astId": 987,
            "contract": "contracts/SwapLab.sol:SwapLab",
            "label": "rate",
            "offset": 0,
            "slot": "1",
            "type": "t_uint256"
          }
        ],
        "numberOfBytes": "64"
      },
      "t_uint256": {
        "encoding": "inplace",
        "label": "uint256",
        "numberOfBytes": "32"
      }
    }
  }
}